:100000000C9463000C948B000C948B000C94AB0349
:100010000C94AB030C94AB030C948B000C948B00EE
:100020000C948B000C948B000C948B000C948B0024
:100030000C948B000C948B000C948B000C948B0014
:100040000C9409030C948B000C9479030C945303C7
:100050000C948B000C948B000C948B000C948B00F4
:100060000C948B000C948B0000000008000201002F
:100070000003040700000000000000000000000072
:1000800023002600290000000000240027002A0089
:1000900000000000250028002B00040404040404D0
:1000A0000404020202020202030303030303010227
:1000B00004081020408001020408102001020408F6
:1000C000102072041E0711241FBECFEFD8E0DEBF40
:1000D000CDBF11E0A0E0B1E0E8E3FFE002C0059091
:1000E0000D92AC35B107D9F722E0ACE5B1E001C023
:1000F0001D92A53FB207E1F710E0C2E6D0E004C0D0
:100100002197FE010E948407C136D107C9F70E94DA
:100110006B050C948F070C940000CF92DF92EF9246
:10012000FF920F931F93CF93DF936C017A018B01A2
:10013000C0E0D0E0CE15DF0581F0D8016D918D01D2
:10014000D601ED91FC910190F081E02DC601099559
:10015000892B11F02196EECF7E01C701DF91CF915F
:100160001F910F91FF90EF90DF90CF900895FC01C9
:10017000538D448D252F30E0842F90E0821B930B0C
:10018000541710F0CF96089501970895FC01918DB2
:10019000828D981761F0828DDF01A80FB11D5D96E9
:1001A0008C91928D9F5F9F73928F90E008958FEF57
:1001B0009FEF0895FC01918D828D981731F0828D0B
:1001C000E80FF11D858D90E008958FEF9FEF089562
:1001D000FC01918D228D892F90E0805C9F4F821BC6
:1001E00091098F739927089589EA91E00E94E800A8
:1001F00021E0892B09F420E0822F0895FC01848DF1
:10020000DF01A80FB11DA35ABF4F2C91848D90E040
:1002100001968F739927848FA689B7892C93A0891B
:10022000B1898C91837080648C93938D848D9813A5
:1002300006C00288F389E02D80818F7D8083089538
:10024000EF92FF920F931F93CF93DF93EC0181E026
:10025000888F9B8D8C8D981305C0E889F9898081E2
:1002600085FD26C0F62E0B8D10E00F5F1F4F0F731C
:100270001127E02E8C8DE8120CC00FB607FCFACFC8
:10028000E889F989808185FFF5CFCE010E94FE00C3
:10029000F1CF8B8DFE01E80FF11DE35AFF4FF08285
:1002A0009FB7F8940B8FEA89FB89808180620AC02E
:1002B0009FB7F894EE89FF896083E889F989808186
:1002C0008370806480839FBF81E090E0DF91CF9155
:1002D0001F910F91FF90EF900895CF93DF93EC0162
:1002E000888D8823C9F0EA89FB89808185FD05C056
:1002F000A889B9898C9186FD0FC00FB607FCF5CF90
:10030000808185FFF2CFA889B9898C9185FFEDCFD7
:10031000CE010E94FE00E7CFDF91CF91089580E0EB
:1003200090E0892B29F00E94F40081110C940000C8
:10033000089520919E0130919F012817390771F48B
:1003400090919C0180919D01981741F0E0919C0152
:10035000F0E0E45AFE4F808190E008958FEF9FEF28
:10036000089508951F93CF93DF93DC015C968D91E0
:100370009C915D97009739F421E030E013963C930F
:100380002E9312973BC05196ED91FC915297509647
:100390002C915097322F30951FB75E964C915E97F7
:1003A000742F727041FD6095F8944081772311F0AD
:1003B000422B01C043234083EC012197F1F748E031
:1003C000508160FF02C0522B01C053235083EC01C7
:1003D0002197F1F76695415099F78081772319F0BD
:1003E0008323808302C0282B20831FBF5C968D91BE
:1003F0009C915D970197F1F781E090E0DF91CF91BB
:100400001F91089520919E0130919F01281739076F
:1004100071F480919D0120919C0190E0805C9F4F40
:10042000821B910960E470E00E943A07089580E021
:1004300090E0089520919E0130919F01281739077F
:10044000B9F490919C0180919D01981789F0E091F9
:100450009C01F0E0E45AFE4F808120919C0130E045
:100460002F5F3F4F2F73332720939C0190E0089517
:100470008FEF9FEF0895089580E090E00895009732
:1004800069F0FC0101900020E9F73197AF01481BAA
:10049000590BBC0186ED92E00C948D0080E090E059
:1004A00008958F929F92AF92BF92CF92DF92EF9278
:1004B000FF920F931F93CF93DF93CDB7DEB7A19732
:1004C0000FB6F894DEBF0FBECDBF6B017C0197FF66
:1004D0002BC06DE286ED92E00E94B2018C012227D2
:1004E0003327A9012C193D094E095F0919A2CE0134
:1004F00081967C019AE0892E912CA12CB12CCA0105
:10050000B901A50194010E944E07605DF701629355
:100510007F01211531054105510589F7CF010E9461
:100520003F02800F911F1DC09B01AC0119A28E01DB
:100530000F5D1F4F8AE0C82ED12CE12CF12CCA018F
:10054000B901A70196010E944E07605DF801629310
:100550008F01211531054105510589F7CF010E9411
:100560003F02A1960FB6F894DEBF0FBECDBFDF915C
:10057000CF911F910F91FF90EF90DF90CF90BF90A0
:10058000AF909F908F900895CF93DF9386E291E094
:100590000E943F02EC0184E291E00E943F028C0F36
:1005A0009D1FDF91CF910895CF92DF92EF92FF923E
:1005B000FC012081253031F5C480D12CDC2CCC24E9
:1005C0008581C80ED11C0D2C000CEE08FF0881811E
:1005D000813619F487E291E009C0823619F489E383
:1005E00091E004C0833671F48AE491E00E943F02F6
:1005F000C701B6010E945102FF90EF90DF90CF90AB
:100600000C94C402FF90EF90DF90CF9008950E9469
:100610008A071F920F920FB60F9211242F933F93C8
:100620008F939F93AF93BF938091A5019091A60163
:10063000A091A701B091A8013091A40123E0230F5C
:100640002D3720F40196A11DB11D05C026E8230F0A
:100650000296A11DB11D2093A4018093A501909342
:10066000A601A093A701B093A8018091A001909149
:10067000A101A091A201B091A3010196A11DB11DFC
:100680008093A0019093A101A093A201B093A30134
:10069000BF91AF919F918F913F912F910F900FBE7E
:1006A0000F901F9018951F920F920FB60F92112462
:1006B0002F933F934F935F936F937F938F939F936A
:1006C000AF93BF93EF93FF9389EA91E00E94FE00FE
:1006D000FF91EF91BF91AF919F918F917F916F911A
:1006E0005F914F913F912F910F900FBE0F901F90F0
:1006F00018951F920F920FB60F9211242F938F937C
:100700009F93EF93FF93E091B901F091BA0180813B
:10071000E091BF01F091C00182FD12C090818091F3
:10072000C2018F5F8F732091C301821751F0E09156
:10073000C201F0E0E755FE4F958F8093C20101C0E2
:100740008081FF91EF919F918F912F910F900FBE1C
:100750000F901F9018951F920F920FB60F921124B1
:100760002F933F934F935F936F937F938F939F93B9
:10077000AF93BF93EF93FF93E0919E01F0919F01A0
:10078000309709F451C0968DA685B785858591FF70
:1007900004C09C91892329F447C09C91892309F0C6
:1007A00043C0A389B4899C918589809589238C93C2
:1007B000868997890197F1F7608D718DA685B78538
:1007C000558538E020E0CB010197F1F7822F90E0CA
:1007D00095958795282F4C91452309F02068315035
:1007E00091F7868D81FD209580919D0190E0019685
:1007F0008F73992730919C01381749F0A0919D0182
:10080000B0E0A45ABE4F2C9380939D0103C0868D07
:100810008160868F828D938D0197F1F7A389B489CA
:100820009C918589892B8C93FF91EF91BF91AF911A
:100830009F918F917F916F915F914F913F912F91F8
:100840000F900FBE0F901F90189590E0FC01E85993
:10085000FF4F2491FC01E255FF4F3491FC01E65615
:10086000FF4FE491EE2309F43CC0222339F12330F9
:1008700091F038F42130A9F0223001F584B58F7D54
:1008800012C0273091F02830A1F02430B9F48091C3
:1008900080008F7D03C0809180008F7780938000DF
:1008A0000DC084B58F7784BD09C08091B0008F776B
:1008B00003C08091B0008F7D8093B000F0E0EE0F18
:1008C000FF1FE057FF4FA591B4919FB7F8946111B6
:1008D00004C08C913095382302C0EC913E2B3C93A0
:1008E0009FBF0895CF93DF931092AC011092AB019C
:1008F00088EE93E0A0E0B0E08093AD019093AE016C
:10090000A093AF01B093B00124E031E03093AA018D
:100910002093A90125EC30E03093B6012093B50176
:1009200024EC30E03093B8012093B70120EC30E0A4
:100930003093BA012093B90121EC30E03093BC012F
:100940002093BB0122EC30E03093BE012093BD0127
:1009500026EC30E03093C0012093BF011092C20119
:100960001092C3011092C4011092C5011092460268
:1009700010928702109288022EE520938A022AE0C4
:1009800020938B021092D9021092D8028093DA023F
:100990009093DB02A093DC02B093DD0286E191E04C
:1009A0009093D7028093D6021092ED021092EC023F
:1009B0001092EF021092EE021092F1021092F002E9
:1009C0001092F3021092F2026091F4026E7F6D7F3A
:1009D0006093F4026695617081E068278BE00E9465
:1009E0002504E9EBF0E02491E5EAF0E08491882326
:1009F00099F090E0880F991FFC01EA57FF4FA591ED
:100A0000B491FC01E057FF4F859194918FB7F89412
:100A1000EC91E22BEC938FBFE9EBF0E0E491E093F3
:100A2000E602E5EAF0E0E491F0E0EE0FFF1FE057A8
:100A3000FF4F859194919093E8028093E702E8EB51
:100A4000F0E02491E4EAF0E084918823C1F090E0A2
:100A5000880F991FFC01EA57FF4FC591D491FC0103
:100A6000E057FF4FA591B4919FB7F8948881E22F8A
:100A7000E0958E2388838C91E823EC939FBF80912F
:100A8000F40281FD04C061E08AE00E9425048AE04E
:100A90008093E202E8EBF0E0E491E093E302E4EA21
:100AA000F0E0E491F0E0EE0FFF1FE458FF4F2591D6
:100AB00034913093E5022093E40210928E0210925A
:100AC000CF021092D0029EE59093D2028093D3027F
:100AD000DF91CF910895CF93DF931F92CDB7DEB70B
:100AE000789484B5826084BD84B5816084BD85B509
:100AF000826085BD85B5816085BD80916E00816015
:100B000080936E00109281008091810082608093BA
:100B100081008091810081608093810080918000BC
:100B20008160809380008091B10084608093B100E7
:100B30008091B00081608093B00080917A008460E1
:100B400080937A0080917A00826080937A0080910D
:100B50007A00816080937A0080917A008068809327
:100B60007A001092C100E091B901F091BA0182E0DF
:100B70008083E091B501F091B6011082E091B70158
:100B8000F091B8018FEC80831092C101E091BD011A
:100B9000F091BE0186E08083E091BB01F091BC0141
:100BA000808180618083E091BB01F091BC018081F4
:100BB00088608083E091BB01F091BC0180818068F6
:100BC0008083E091BB01F091BC0180818F7D8083A7
:100BD00084ED92E09093D5028093D4021092F102BA
:100BE0001092F0021092EF021092EE021092ED02BB
:100BF0001092EC028DE991E09093F3028093F2025F
:100C00009091E202963108F058C02DEB30E030931D
:100C1000ED022093EC022BE931E03093EF022093B8
:100C2000EE022CE231E03093F1022093F002409189
:100C30006800983058F031E09E3008F430E021E050
:100C4000822F01C0880F3A95EAF701C084E0842B17
:100C500080936800983038F09E3040F0963148F02C
:100C600020E030E008C02DE630E005C02BE630E0A3
:100C700002C02CE630E03093EA022093E90298307B
:100C800030F481E001C0880F9A95EAF70EC0292F51
:100C900030E09E3018F42850310902C02E5031093E
:100CA00081E001C0880F2A95EAF78093EB028091DA
:100CB000F2029091F3020197F1F78091F002909186
:100CC000F102892B49F1E0919E01F0919F0172E0C0
:100CD000E63DF70709F1309739F0A389B4899C9173
:100CE0008589809589238C938091F4028E7F8093EF
:100CF000F40210929D0110929C0186ED92E0909377
:100D00009F0180939E01E091E902F091EA029081B7
:100D10008091EB02892B808311E089EA91E00E94A7
:100D2000E800892B09F487C089EA91E00E94C60097
:100D30004091D20250E08417950739F41093CF0206
:100D40001092D00210928E02E8CF4091D30250E070
:100D50008417950709F05AC01092CF0260918E0255
:100D60008FEF860F8F33C8F6EDB6FEB6462F50E0F4
:100D70009A0122503109F901E257FD4F0181FA0130
:100D8000E257FD4FB0808DB79EB7821B930B0FB615
:100D9000F8949EBF0FBE8DBF0196AFE8B2E0FC0194
:100DA0006F01C81AD90AC216D3061CF4DD90D1927D
:100DB000F7CFFC012FEF3FEF44505109DF01A81B93
:100DC000B90BA417B5079CF4A1912A27A8E0B0E0BD
:100DD000722F7170D72E3695279571E0D71204C007
:100DE00071E0272770EA3727119791F7E7CF0213B1
:100DF00007C0B31205C0E091D402F091D502099565
:100E00000FB6F894FEBE0FBEEDBE87CF9091CF0215
:100E1000992309F482CF90918E02903418F01093A8
:100E2000D0027BCFE92FF0E0E257FD4F81839F5F37
:100E300090938E0272CF0E948F016FCF86E191E076
:100E40009093D7028093D60280919E0190919F014A
:100E5000865D924071F4E091E902F091EA0290819E
:100E60008091EB0280958923808310929F011092DC
:100E70009E01089597FB072E16F4009407D077FD86
:100E800009D00E94700707FC05D03EF4909581952B
:100E90009F4F0895709561957F4F0895A1E21A2E96
:100EA000AA1BBB1BFD010DC0AA1FBB1FEE1FFF1F0E
:100EB000A217B307E407F50720F0A21BB30BE40B5E
:100EC000F50B661F771F881F991F1A9469F76095A5
:100ED0007095809590959B01AC01BD01CF0108955F
:100EE000AA1BBB1B51E107C0AA1FBB1FA617B70750
:100EF00010F0A61BB70B881F991F5A95A9F780956C
:100F00009095BC01CD010895EE0FFF1F0590F4915F
:100F1000E02D099481E090E0F8940C948F0710E0A4
:100F2000C2E6D0E004C0FE010E9484072196C336C9
:080F3000D107C9F7F894FFCFC7
:100F38000000000020018D00B7006D01E800C60028
:100F4800DA0000000000B2018D003C02B10102028B
:100F58001A0299010D0A00426972696E6369205686
:100F68006572692E2E2E2E3A00496B696E636920D0
:100F7800566572692E2E2E2E3A005563756E63756E
:0C0F880020566572692E2E2E2E3A0000B5
:00000001FF
